{
  "contractName": "FlightSuretyData",
  "abi": [
    {
      "inputs": [
        {
          "name": "firstAirline",
          "type": "address"
        }
      ],
      "payable": false,
      "stateMutability": "nonpayable",
      "type": "constructor"
    },
    {
      "payable": true,
      "stateMutability": "payable",
      "type": "fallback"
    },
    {
      "constant": true,
      "inputs": [],
      "name": "isOperational",
      "outputs": [
        {
          "name": "",
          "type": "bool"
        }
      ],
      "payable": false,
      "stateMutability": "view",
      "type": "function"
    },
    {
      "constant": false,
      "inputs": [
        {
          "name": "mode",
          "type": "bool"
        }
      ],
      "name": "setOperatingStatus",
      "outputs": [],
      "payable": false,
      "stateMutability": "nonpayable",
      "type": "function"
    },
    {
      "constant": false,
      "inputs": [
        {
          "name": "airline",
          "type": "address"
        }
      ],
      "name": "registerAirline",
      "outputs": [],
      "payable": false,
      "stateMutability": "nonpayable",
      "type": "function"
    },
    {
      "constant": true,
      "inputs": [],
      "name": "numberOfAirlines",
      "outputs": [
        {
          "name": "",
          "type": "uint256"
        }
      ],
      "payable": false,
      "stateMutability": "view",
      "type": "function"
    },
    {
      "constant": true,
      "inputs": [
        {
          "name": "airline",
          "type": "address"
        }
      ],
      "name": "isAirline",
      "outputs": [
        {
          "name": "",
          "type": "bool"
        }
      ],
      "payable": false,
      "stateMutability": "view",
      "type": "function"
    },
    {
      "constant": false,
      "inputs": [
        {
          "name": "airline",
          "type": "address"
        }
      ],
      "name": "voteToRegisterAirline",
      "outputs": [],
      "payable": false,
      "stateMutability": "nonpayable",
      "type": "function"
    },
    {
      "constant": false,
      "inputs": [
        {
          "name": "airline",
          "type": "address"
        }
      ],
      "name": "getNumberOfRegistrationVotes",
      "outputs": [
        {
          "name": "",
          "type": "uint256"
        }
      ],
      "payable": false,
      "stateMutability": "nonpayable",
      "type": "function"
    },
    {
      "constant": false,
      "inputs": [
        {
          "name": "airline",
          "type": "address"
        },
        {
          "name": "flight",
          "type": "string"
        },
        {
          "name": "timestamp",
          "type": "uint256"
        }
      ],
      "name": "registerFlight",
      "outputs": [],
      "payable": false,
      "stateMutability": "nonpayable",
      "type": "function"
    },
    {
      "constant": true,
      "inputs": [],
      "name": "getFlightNumbers",
      "outputs": [
        {
          "name": "",
          "type": "string[]"
        }
      ],
      "payable": false,
      "stateMutability": "view",
      "type": "function"
    },
    {
      "constant": true,
      "inputs": [],
      "name": "numberOfFlights",
      "outputs": [
        {
          "name": "",
          "type": "uint256"
        }
      ],
      "payable": false,
      "stateMutability": "view",
      "type": "function"
    },
    {
      "constant": false,
      "inputs": [
        {
          "name": "passenger",
          "type": "address"
        },
        {
          "name": "airline",
          "type": "address"
        },
        {
          "name": "flight",
          "type": "string"
        }
      ],
      "name": "buy",
      "outputs": [],
      "payable": true,
      "stateMutability": "payable",
      "type": "function"
    },
    {
      "constant": true,
      "inputs": [
        {
          "name": "airline",
          "type": "address"
        },
        {
          "name": "flight",
          "type": "string"
        }
      ],
      "name": "getFlightInsuranceOwners",
      "outputs": [
        {
          "name": "",
          "type": "address[]"
        }
      ],
      "payable": false,
      "stateMutability": "view",
      "type": "function"
    },
    {
      "constant": false,
      "inputs": [
        {
          "name": "airline",
          "type": "address"
        },
        {
          "name": "flight",
          "type": "string"
        }
      ],
      "name": "creditInsurees",
      "outputs": [],
      "payable": false,
      "stateMutability": "nonpayable",
      "type": "function"
    },
    {
      "constant": false,
      "inputs": [
        {
          "name": "passenger",
          "type": "address"
        }
      ],
      "name": "getPassengerCredit",
      "outputs": [
        {
          "name": "",
          "type": "uint256"
        }
      ],
      "payable": false,
      "stateMutability": "nonpayable",
      "type": "function"
    },
    {
      "constant": false,
      "inputs": [
        {
          "name": "passenger",
          "type": "address"
        }
      ],
      "name": "pay",
      "outputs": [],
      "payable": false,
      "stateMutability": "nonpayable",
      "type": "function"
    },
    {
      "constant": false,
      "inputs": [
        {
          "name": "airline",
          "type": "address"
        }
      ],
      "name": "fund",
      "outputs": [],
      "payable": true,
      "stateMutability": "payable",
      "type": "function"
    },
    {
      "constant": true,
      "inputs": [
        {
          "name": "airline",
          "type": "address"
        }
      ],
      "name": "hasPaidRegistrationFee",
      "outputs": [
        {
          "name": "",
          "type": "bool"
        }
      ],
      "payable": false,
      "stateMutability": "view",
      "type": "function"
    },
    {
      "constant": false,
      "inputs": [
        {
          "name": "airline",
          "type": "address"
        },
        {
          "name": "flight",
          "type": "string"
        },
        {
          "name": "timestamp",
          "type": "uint256"
        },
        {
          "name": "statusCode",
          "type": "uint8"
        }
      ],
      "name": "updateFlightStatus",
      "outputs": [],
      "payable": false,
      "stateMutability": "nonpayable",
      "type": "function"
    },
    {
      "constant": true,
      "inputs": [
        {
          "name": "airline",
          "type": "address"
        },
        {
          "name": "flight",
          "type": "string"
        },
        {
          "name": "timestamp",
          "type": "uint256"
        }
      ],
      "name": "getFlightStatus",
      "outputs": [
        {
          "name": "",
          "type": "uint8"
        }
      ],
      "payable": false,
      "stateMutability": "view",
      "type": "function"
    }
  ],
  "bytecode": "0x60806040526001600060146101000a81548160ff021916908315150217905550600180556001600255670de0b6b3a76400006003553480156200004157600080fd5b50604051602080620023da833981018060405262000063919081019062000176565b336000806101000a81548173ffffffffffffffffffffffffffffffffffffffff021916908373ffffffffffffffffffffffffffffffffffffffff1602179055506001600560008373ffffffffffffffffffffffffffffffffffffffff1673ffffffffffffffffffffffffffffffffffffffff16815260200190815260200160002060000160006101000a81548160ff0219169083151502179055506001600560008373ffffffffffffffffffffffffffffffffffffffff1673ffffffffffffffffffffffffffffffffffffffff16815260200190815260200160002060000160016101000a81548160ff02191690831515021790555050620001c2565b60006200016e8251620001a2565b905092915050565b6000602082840312156200018957600080fd5b6000620001998482850162000160565b91505092915050565b600073ffffffffffffffffffffffffffffffffffffffff82169050919050565b61220880620001d26000396000f300608060405260043610610107576000357c0100000000000000000000000000000000000000000000000000000000900463ffffffff16806302bc61901461011257806305b64e981461013d5780630c11dedd1461017a5780630e248a11146101a3578063110466ed146101e05780631b7b7cce1461020957806323024408146102325780633c85380f1461024e5780633cc0be9c146102795780634337bdd4146102a25780634a4d1014146102cb578063570e30e1146103085780639de5f95714610345578063b917ca3914610382578063bce877ab146103ad578063bdfd9877146103c9578063cd905dff146103f2578063dab6ce6a1461041d578063e36ed7b31461045a575b61011033610483565b005b34801561011e57600080fd5b506101276104e1565b6040516101349190611f7c565b60405180910390f35b34801561014957600080fd5b50610164600480360361015f9190810190611a61565b61061b565b6040516101719190612079565b60405180910390f35b34801561018657600080fd5b506101a1600480360361019c9190810190611a61565b6106b4565b005b3480156101af57600080fd5b506101ca60048036036101c59190810190611a61565b610829565b6040516101d79190611f9e565b60405180910390f35b3480156101ec57600080fd5b5061020760048036036102029190810190611c3a565b610882565b005b34801561021557600080fd5b50610230600480360361022b9190810190611af6565b610930565b005b61024c60048036036102479190810190611a61565b610483565b005b34801561025a57600080fd5b50610263610b82565b6040516102709190612079565b60405180910390f35b34801561028557600080fd5b506102a0600480360361029b9190810190611b4e565b610bdc565b005b3480156102ae57600080fd5b506102c960048036036102c49190810190611bba565b610ef9565b005b3480156102d757600080fd5b506102f260048036036102ed9190810190611af6565b610f79565b6040516102ff9190611f5a565b60405180910390f35b34801561031457600080fd5b5061032f600480360361032a9190810190611a61565b61108a565b60405161033c9190611f9e565b60405180910390f35b34801561035157600080fd5b5061036c60048036036103679190810190611b4e565b6110e3565b6040516103799190612094565b60405180910390f35b34801561038e57600080fd5b5061039761115c565b6040516103a49190612079565b60405180910390f35b6103c760048036036103c29190810190611a8a565b6111b6565b005b3480156103d557600080fd5b506103f060048036036103eb9190810190611a61565b611359565b005b3480156103fe57600080fd5b506104076114f8565b6040516104149190611f9e565b60405180910390f35b34801561042957600080fd5b50610444600480360361043f9190810190611a61565b61150e565b6040516104519190612079565b60405180910390f35b34801561046657600080fd5b50610481600480360361047c9190810190611a61565b611557565b005b6001600560008373ffffffffffffffffffffffffffffffffffffffff1673ffffffffffffffffffffffffffffffffffffffff16815260200190815260200160002060000160016101000a81548160ff02191690831515021790555050565b6060600060149054906101000a900460ff161515610534576040517f08c379a000000000000000000000000000000000000000000000000000000000815260040161052b90612019565b60405180910390fd5b6004805480602002602001604051908101604052809291908181526020016000905b82821015610612578382906000526020600020018054600181600116156101000203166002900480601f0160208091040260200160405190810160405280929190818152602001828054600181600116156101000203166002900480156105fe5780601f106105d3576101008083540402835291602001916105fe565b820191906000526020600020905b8154815290600101906020018083116105e157829003601f168201915b505050505081526020019060010190610556565b50505050905090565b60008060149054906101000a900460ff16151561066d576040517f08c379a000000000000000000000000000000000000000000000000000000000815260040161066490612019565b60405180910390fd5b600860008373ffffffffffffffffffffffffffffffffffffffff1673ffffffffffffffffffffffffffffffffffffffff168152602001908152602001600020549050919050565b6000600860008373ffffffffffffffffffffffffffffffffffffffff1673ffffffffffffffffffffffffffffffffffffffff16815260200190815260200160002054905060008111151561073d576040517f08c379a000000000000000000000000000000000000000000000000000000000815260040161073490611ff9565b60405180910390fd5b60003073ffffffffffffffffffffffffffffffffffffffff1631111515610799576040517f08c379a000000000000000000000000000000000000000000000000000000000815260040161079090612059565b60405180910390fd5b6000600860008473ffffffffffffffffffffffffffffffffffffffff1673ffffffffffffffffffffffffffffffffffffffff168152602001908152602001600020819055508173ffffffffffffffffffffffffffffffffffffffff166108fc829081150290604051600060405180830381858888f19350505050158015610824573d6000803e3d6000fd5b505050565b6000600560008373ffffffffffffffffffffffffffffffffffffffff1673ffffffffffffffffffffffffffffffffffffffff16815260200190815260200160002060000160009054906101000a900460ff169050919050565b6000809054906101000a900473ffffffffffffffffffffffffffffffffffffffff1673ffffffffffffffffffffffffffffffffffffffff163373ffffffffffffffffffffffffffffffffffffffff16141515610913576040517f08c379a000000000000000000000000000000000000000000000000000000000815260040161090a90612039565b60405180910390fd5b80600060146101000a81548160ff02191690831515021790555050565b60008060008060008060008060149054906101000a900460ff16151561098b576040517f08c379a000000000000000000000000000000000000000000000000000000000815260040161098290612019565b60405180910390fd5b600560008b73ffffffffffffffffffffffffffffffffffffffff1673ffffffffffffffffffffffffffffffffffffffff168152602001908152602001600020600101898960405180838380828437820191505092505050908152602001604051809103902054965060076000888152602001908152602001600020600401549550600760008881526020019081526020016000206001019450600093505b8480549050841015610b3e578484815481101515610a4357fe5b9060005260206000200160009054906101000a900473ffffffffffffffffffffffffffffffffffffffff169250600860008473ffffffffffffffffffffffffffffffffffffffff1673ffffffffffffffffffffffffffffffffffffffff168152602001908152602001600020549150610aeb610adc600a610ace600f8a6115f690919063ffffffff16565b61162e90919063ffffffff16565b8361164490919063ffffffff16565b905080600860008573ffffffffffffffffffffffffffffffffffffffff1673ffffffffffffffffffffffffffffffffffffffff168152602001908152602001600020819055508380600101945050610a29565b60016007600089815260200190815260200160002060050160006101000a81548160ff02191690836002811115610b7157fe5b021790555050505050505050505050565b60008060149054906101000a900460ff161515610bd4576040517f08c379a0000000000000000000000000000000000000000000000000000000008152600401610bcb90612019565b60405180910390fd5b600254905090565b60008060149054906101000a900460ff161515610c2e576040517f08c379a0000000000000000000000000000000000000000000000000000000008152600401610c2590612019565b60405180910390fd5b8460011515600560008373ffffffffffffffffffffffffffffffffffffffff1673ffffffffffffffffffffffffffffffffffffffff16815260200190815260200160002060000160009054906101000a900460ff161515141515610cc7576040517f08c379a0000000000000000000000000000000000000000000000000000000008152600401610cbe90611fb9565b60405180910390fd5b610d048686868080601f01602080910402602001604051908101604052809392919081815260200183838082843782019150505050505085611660565b915060a060405190810160405280600115158152602001600060ff16815260200160015481526020018481526020018773ffffffffffffffffffffffffffffffffffffffff1681525060066000846000191660001916815260200190815260200160002060008201518160000160006101000a81548160ff02191690831515021790555060208201518160000160016101000a81548160ff021916908360ff160217905550604082015181600101556060820151816002015560808201518160030160006101000a81548173ffffffffffffffffffffffffffffffffffffffff021916908373ffffffffffffffffffffffffffffffffffffffff160217905550905050600154600560008873ffffffffffffffffffffffffffffffffffffffff1673ffffffffffffffffffffffffffffffffffffffff1681526020019081526020016000206001018686604051808383808284378201915050925050509081526020016040518091039020819055506004858590918060018154018082558091505090600182039060005260206000200160009091929390919293909192909192509190610eb39291906118a0565b5050610ef18686868080601f016020809104026020016040519081016040528093929190818152602001838380828437820191505050505050611785565b505050505050565b6000610f388686868080601f01602080910402602001604051908101604052809392919081815260200183838082843782019150505050505085611660565b90508160066000836000191660001916815260200190815260200160002060000160016101000a81548160ff021916908360ff160217905550505050505050565b60606000600560008673ffffffffffffffffffffffffffffffffffffffff1673ffffffffffffffffffffffffffffffffffffffff16815260200190815260200160002060010184846040518083838082843782019150509250505090815260200160405180910390205490506007600082815260200190815260200160002060010180548060200260200160405190810160405280929190818152602001828054801561107b57602002820191906000526020600020905b8160009054906101000a900473ffffffffffffffffffffffffffffffffffffffff1673ffffffffffffffffffffffffffffffffffffffff1681526020019060010190808311611031575b50505050509150509392505050565b6000600560008373ffffffffffffffffffffffffffffffffffffffff1673ffffffffffffffffffffffffffffffffffffffff16815260200190815260200160002060000160019054906101000a900460ff169050919050565b6000806111238686868080601f01602080910402602001604051908101604052809392919081815260200183838082843782019150505050505085611660565b905060066000826000191660001916815260200190815260200160002060000160019054906101000a900460ff16915050949350505050565b60008060149054906101000a900460ff1615156111ae576040517f08c379a00000000000000000000000000000000000000000000000000000000081526004016111a590612019565b60405180910390fd5b600154905090565b60008060149054906101000a900460ff161515611208576040517f08c379a00000000000000000000000000000000000000000000000000000000081526004016111ff90612019565b60405180910390fd5b600560008573ffffffffffffffffffffffffffffffffffffffff1673ffffffffffffffffffffffffffffffffffffffff1681526020019081526020016000206001018383604051808383808284378201915050925050509081526020016040518091039020549050600760008281526020019081526020016000206001018590806001815401808255809150509060018203906000526020600020016000909192909190916101000a81548173ffffffffffffffffffffffffffffffffffffffff021916908373ffffffffffffffffffffffffffffffffffffffff160217905550506000809054906101000a900473ffffffffffffffffffffffffffffffffffffffff1673ffffffffffffffffffffffffffffffffffffffff166108fc349081150290604051600060405180830381858888f19350505050158015611351573d6000803e3d6000fd5b505050505050565b600060149054906101000a900460ff1615156113aa576040517f08c379a00000000000000000000000000000000000000000000000000000000081526004016113a190612019565b60405180910390fd5b600560008273ffffffffffffffffffffffffffffffffffffffff1673ffffffffffffffffffffffffffffffffffffffff16815260200190815260200160002060000160009054906101000a900460ff1615151561143c576040517f08c379a000000000000000000000000000000000000000000000000000000000815260040161143390611fd9565b60405180910390fd5b604080519081016040528060011515815260200160001515815250600560008373ffffffffffffffffffffffffffffffffffffffff1673ffffffffffffffffffffffffffffffffffffffff16815260200190815260200160002060008201518160000160006101000a81548160ff02191690831515021790555060208201518160000160016101000a81548160ff0219169083151502179055509050506114ef600160025461164490919063ffffffff16565b60028190555050565b60008060149054906101000a900460ff16905090565b6000600960008373ffffffffffffffffffffffffffffffffffffffff1673ffffffffffffffffffffffffffffffffffffffff168152602001908152602001600020549050919050565b6000600960008373ffffffffffffffffffffffffffffffffffffffff1673ffffffffffffffffffffffffffffffffffffffff1681526020019081526020016000205490506115af60018261164490919063ffffffff16565b600960008473ffffffffffffffffffffffffffffffffffffffff1673ffffffffffffffffffffffffffffffffffffffff168152602001908152602001600020819055505050565b6000808314156116095760009050611628565b818302905081838281151561161a57fe5b0414151561162457fe5b8090505b92915050565b6000818381151561163b57fe5b04905092915050565b6000818301905082811015151561165757fe5b80905092915050565b6000838383604051602001808473ffffffffffffffffffffffffffffffffffffffff1673ffffffffffffffffffffffffffffffffffffffff166c0100000000000000000000000002815260140183805190602001908083835b6020831015156116de57805182526020820191506020810190506020830392506116b9565b6001836020036101000a03801982511681845116808217855250505050505090500182815260200193505050506040516020818303038152906040526040518082805190602001908083835b60208310151561174f578051825260208201915060208101905060208303925061172a565b6001836020036101000a038019825116818451168082178552505050505050905001915050604051809103902090509392505050565b600154600760006001548152602001908152602001600020600001819055508160076000600154815260200190815260200160002060020160006101000a81548173ffffffffffffffffffffffffffffffffffffffff021916908373ffffffffffffffffffffffffffffffffffffffff160217905550806007600060015481526020019081526020016000206003019080519060200190611827929190611920565b5060035460076000600154815260200190815260200160002060040181905550600060076000600154815260200190815260200160002060050160006101000a81548160ff0219169083600281111561187c57fe5b02179055506118966001805461164490919063ffffffff16565b6001819055505050565b828054600181600116156101000203166002900490600052602060002090601f016020900481019282601f106118e157803560ff191683800117855561190f565b8280016001018555821561190f579182015b8281111561190e5782358255916020019190600101906118f3565b5b50905061191c91906119a0565b5090565b828054600181600116156101000203166002900490600052602060002090601f016020900481019282601f1061196157805160ff191683800117855561198f565b8280016001018555821561198f579182015b8281111561198e578251825591602001919060010190611973565b5b50905061199c91906119a0565b5090565b6119c291905b808211156119be5760008160009055506001016119a6565b5090565b90565b60006119d18235612147565b905092915050565b60006119e58235612167565b905092915050565b60008083601f8401121515611a0157600080fd5b8235905067ffffffffffffffff811115611a1a57600080fd5b602083019150836001820283011115611a3257600080fd5b9250929050565b6000611a458235612173565b905092915050565b6000611a59823561217d565b905092915050565b600060208284031215611a7357600080fd5b6000611a81848285016119c5565b91505092915050565b60008060008060608587031215611aa057600080fd5b6000611aae878288016119c5565b9450506020611abf878288016119c5565b935050604085013567ffffffffffffffff811115611adc57600080fd5b611ae8878288016119ed565b925092505092959194509250565b600080600060408486031215611b0b57600080fd5b6000611b19868287016119c5565b935050602084013567ffffffffffffffff811115611b3657600080fd5b611b42868287016119ed565b92509250509250925092565b60008060008060608587031215611b6457600080fd5b6000611b72878288016119c5565b945050602085013567ffffffffffffffff811115611b8f57600080fd5b611b9b878288016119ed565b93509350506040611bae87828801611a39565b91505092959194509250565b600080600080600060808688031215611bd257600080fd5b6000611be0888289016119c5565b955050602086013567ffffffffffffffff811115611bfd57600080fd5b611c09888289016119ed565b94509450506040611c1c88828901611a39565b9250506060611c2d88828901611a4d565b9150509295509295909350565b600060208284031215611c4c57600080fd5b6000611c5a848285016119d9565b91505092915050565b611c6c81612104565b82525050565b6000611c7d826120c9565b808452602084019350611c8f836120af565b60005b82811015611cc157611ca5868351611c63565b611cae826120ea565b9150602086019550600181019050611c92565b50849250505092915050565b6000611cd8826120d4565b80845260208401935083602082028501611cf1856120bc565b60005b84811015611d2a578383038852611d0c838351611d4a565b9250611d17826120f7565b9150602088019750600181019050611cf4565b508196508694505050505092915050565b611d4481612124565b82525050565b6000611d55826120df565b808452611d6981602086016020860161218a565b611d72816121bd565b602085010191505092915050565b6000601a82527f4169726c696e65206d75737420626520726567697374657265640000000000006020830152604082019050919050565b6000601e82527f4169726c696e6520697320616c726561647920726567697374657265642e00006020830152604082019050919050565b6000602582527f50617373656e67657220646f6573206e6f74206861766520656e6f756768206360208301527f72656469740000000000000000000000000000000000000000000000000000006040830152606082019050919050565b6000602582527f436f6e74726163742069732063757272656e746c79206e6f74206f706572617460208301527f696f6e616c0000000000000000000000000000000000000000000000000000006040830152606082019050919050565b6000601c82527f43616c6c6572206973206e6f7420636f6e7472616374206f776e6572000000006020830152604082019050919050565b6000602482527f436f6e747261637420646f6573206e6f74206861766520656e6f75676820637260208301527f65646974000000000000000000000000000000000000000000000000000000006040830152606082019050919050565b611f4581612130565b82525050565b611f548161213a565b82525050565b60006020820190508181036000830152611f748184611c72565b905092915050565b60006020820190508181036000830152611f968184611ccd565b905092915050565b6000602082019050611fb36000830184611d3b565b92915050565b60006020820190508181036000830152611fd281611d80565b9050919050565b60006020820190508181036000830152611ff281611db7565b9050919050565b6000602082019050818103600083015261201281611dee565b9050919050565b6000602082019050818103600083015261203281611e4b565b9050919050565b6000602082019050818103600083015261205281611ea8565b9050919050565b6000602082019050818103600083015261207281611edf565b9050919050565b600060208201905061208e6000830184611f3c565b92915050565b60006020820190506120a96000830184611f4b565b92915050565b6000602082019050919050565b6000602082019050919050565b600081519050919050565b600081519050919050565b600081519050919050565b6000602082019050919050565b6000602082019050919050565b600073ffffffffffffffffffffffffffffffffffffffff82169050919050565b60008115159050919050565b6000819050919050565b600060ff82169050919050565b600073ffffffffffffffffffffffffffffffffffffffff82169050919050565b60008115159050919050565b6000819050919050565b600060ff82169050919050565b60005b838110156121a857808201518184015260208101905061218d565b838111156121b7576000848401525b50505050565b6000601f19601f83011690509190505600a265627a7a72305820133c21cdf5f10b7826834d85a50a1cfea2a0955ad3247f63bb1c8eda5c2ee2926c6578706572696d656e74616cf50037",
  "source": "pragma solidity ^0.4.25;\npragma experimental ABIEncoderV2;\n\nimport \"../node_modules/openzeppelin-solidity/contracts/math/SafeMath.sol\";\n\ninterface IFlightSuretyData {\n    function registerAirline(address airline) external;\n    function numberOfAirlines() external view returns(uint);\n    function getFlightNumbers() external view returns(string[]);\n    function isOperational() view external returns(bool);\n    function registerFlight(address airline, string flight, uint256 timestamp) external;\n    function fund(address airline) public payable;\n    function buy(address passenger, address airline, string flight) external payable;\n    function pay(address passenger) external;\n    function hasPaidRegistrationFee(address airline) view external returns(bool);\n    function updateFlightStatus(address airline, string flight, uint256 timestamp, uint8 statusCode) external;\n    function voteToRegisterAirline(address airline) external;\n    function getNumberOfRegistrationVotes(address airline) external returns(uint);\n}\n\ncontract FlightSuretyData is IFlightSuretyData {\n    using SafeMath for uint256;\n\n    /********************************************************************************************/\n    /*                                       DATA VARIABLES                                     */\n    /********************************************************************************************/\n\n    struct Airline {\n        bool isRegistered;\n        bool hasPaidRegistrationFee;\n        mapping(string => uint) flightSKUs;\n    }\n\n    struct Flight {\n        bool isRegistered;\n        uint8 statusCode;\n        uint sku;\n        uint256 updatedTimestamp;\n        address airline;\n    }\n\n    enum InsuranceState {\n        Active,\n        Credited,\n        Expired\n    }\n\n    struct FlightInsurance {\n        uint sku;\n        address[] passengers;  // Metamask-Ethereum address of passengers\n        address airline; // The airline of the insured flight\n        string flight; // The flight number\n        uint price; // Product Price\n        InsuranceState state;  // Insurance state as represented in the enum above\n    }\n\n    address private contractOwner; // Account used to deploy contract\n    bool private operational = true; // Blocks all state changes throughout the contract if false\n\n    uint private flightSKU = 1; // Sku stands for Stock Keeping Unit\n    uint private airlineSKU = 1; // Sku stands for Stock Keeping Unit\n    uint private insurancePrice = 1 ether; // The price of the flight insurance\n    string[] private flightNumbers; // Lists all the flight numbers so it can be displayed\n\n    // Track all registered airlines\n    mapping(address => Airline) private airlines;\n    // Track all registered flights\n    mapping(bytes32 => Flight) private flights;\n    // Track all the existing insurance\n    mapping(uint => FlightInsurance) private insurances;\n    // Keeps track of how much credit each passenger can withdraw\n    mapping(address => uint256) private passengerCredits;\n    // Keeps track of the airline registered to vote\n    mapping(address => uint) private airlineRegistrationVotes;\n\n    /********************************************************************************************/\n    /*                                       EVENT DEFINITIONS                                  */\n    /********************************************************************************************/\n\n\n    /**\n    * @dev Constructor\n    *      The deploying account becomes contractOwner\n    */\n    constructor(address firstAirline) public {\n        contractOwner = msg.sender;\n\n        // Set first airline\n        airlines[firstAirline].isRegistered = true;\n        airlines[firstAirline].hasPaidRegistrationFee = true;\n    }\n\n    /********************************************************************************************/\n    /*                                       FUNCTION MODIFIERS                                 */\n    /********************************************************************************************/\n\n    // Modifiers help avoid duplication of code. They are typically used to validate something\n    // before a function is allowed to be executed.\n\n    /**\n    * @dev Modifier that requires the \"operational\" boolean variable to be \"true\"\n    *      This is used on all state changing functions to pause the contract in\n    *      the event there is an issue that needs to be fixed\n    */\n    modifier requireIsOperational()\n    {\n        require(operational, \"Contract is currently not operational\");\n        _;  // All modifiers require an \"_\" which indicates where the function body will be added\n    }\n\n    /**\n    * @dev Modifier that requires the \"ContractOwner\" account to be the function caller\n    */\n    modifier requireContractOwner()\n    {\n        require(msg.sender == contractOwner, \"Caller is not contract owner\");\n        _;\n    }\n\n    /**\n    * @dev Modifier that requires the \"ContractOwner\" account to be the function caller\n    */\n    modifier requireAnAirline(address airline) {\n        require(airlines[airline].isRegistered == true, \"Airline must be registered\");\n        _;\n    }\n\n    /**\n    * @dev Modifier that requires the \"ContractOwner\" account to be the function caller\n    */\n    modifier requireTenEther()\n    {\n        require(msg.value >= 10, \"Airline must pay at least 10 ether\");\n        _;\n    }\n\n    /********************************************************************************************/\n    /*                                       UTILITY FUNCTIONS                                  */\n    /********************************************************************************************/\n\n    /**\n    * @dev Get operating status of contract\n    *\n    * @return A bool that is the current operating status\n    */\n    function isOperational() view external returns(bool) {\n        return operational;\n    }\n\n    /**\n    * @dev Sets contract operations on/off\n    *\n    * When operational mode is disabled, all write transactions except for this one will fail\n    */\n    function setOperatingStatus(bool mode) external requireContractOwner {\n        operational = mode;\n    }\n\n    /********************************************************************************************/\n    /*                                     SMART CONTRACT FUNCTIONS                             */\n    /********************************************************************************************/\n\n    /**\n    * @dev Add an airline to the registration queue\n    *      Can only be called from FlightSuretyApp contract\n    *\n    */\n    function registerAirline(address airline) external\n        requireIsOperational\n    {\n        require(!airlines[airline].isRegistered, \"Airline is already registered.\");\n\n        airlines[airline] = Airline(true, false);\n        airlineSKU = airlineSKU.add(1);\n    }\n\n    /**\n    * @dev Returns the number of airlines that are registered\n    *\n    */\n    function numberOfAirlines() external view\n        requireIsOperational\n        returns(uint)\n    {\n        return airlineSKU;\n    }\n\n    /**\n    * @dev checks if the address is an airline registered\n    *\n    */\n    function isAirline(address airline) view external\n        returns(bool)\n    {\n        return airlines[airline].isRegistered;\n    }\n\n    /**\n    * @dev Add vote to register airline\n    *\n    */\n    function voteToRegisterAirline(address airline) external {\n        uint currentNumberOfVotes = airlineRegistrationVotes[airline];\n        airlineRegistrationVotes[airline] = currentNumberOfVotes.add(1);\n    }\n\n    /**\n    * @dev Add vote to register airline\n    *\n    */\n    function getNumberOfRegistrationVotes(address airline) external\n        returns(uint)\n    {\n        return airlineRegistrationVotes[airline];\n    }\n\n    /**\n    * @dev Add a flight to the flights mapping\n    *\n    */\n    function registerFlight(address airline, string flight, uint256 timestamp) external\n        requireIsOperational requireAnAirline(airline)\n    {\n        bytes32 flightKey = getFlightKey(airline, flight, timestamp);\n\n        flights[flightKey] = Flight(true, 0, flightSKU, timestamp, airline);\n        airlines[airline].flightSKUs[flight] = flightSKU;\n        flightNumbers.push(flight);\n\n        _createFlightInsurance(airline, flight);\n    }\n\n    /**\n    * @dev Returns the flight numbers of the flights registered\n    *\n    */\n    function getFlightNumbers() external view\n        requireIsOperational\n        returns(string[])\n    {\n        return flightNumbers;\n    }\n\n    /**\n    * @dev Returns the number of flights that are registered\n    *\n    */\n    function numberOfFlights() external view\n        requireIsOperational\n        returns(uint)\n    {\n        return flightSKU;\n    }\n\n    /**\n    * @dev Add a flight insurance to the insurances mapping\n    *\n    */\n    function _createFlightInsurance(address airline, string flight) internal {\n        insurances[flightSKU].sku = flightSKU;\n        insurances[flightSKU].airline = airline;\n        insurances[flightSKU].flight = flight;\n        insurances[flightSKU].price = insurancePrice;\n        insurances[flightSKU].state = InsuranceState.Active;\n\n        // Increment the SKU\n        flightSKU = flightSKU.add(1);\n    }\n\n    /**\n    * @dev Buy insurance for a flight\n    *\n    */\n    function buy(address passenger, address airline, string flight) external payable\n        requireIsOperational\n    {\n        uint sku = airlines[airline].flightSKUs[flight];\n        insurances[sku].passengers.push(passenger);\n\n        contractOwner.transfer(msg.value);\n    }\n\n    /**\n    * @dev Get flight insurance passenger addresses. This is used for unit testing.\n    *\n    */\n    function getFlightInsuranceOwners(address airline, string flight) view external returns(address[]) {\n        uint sku = airlines[airline].flightSKUs[flight];\n        return insurances[sku].passengers;\n    }\n\n    /**\n    *  @dev Credits payouts to insurees\n    */\n    function creditInsurees(address airline, string flight) requireIsOperational external {\n        uint sku = airlines[airline].flightSKUs[flight];\n        uint price = insurances[sku].price;\n        address[] passengers = insurances[sku].passengers;\n\n        for (uint i=0; i < passengers.length; i++) {\n            address passenger = passengers[i];\n            uint256 currentCredit = passengerCredits[passenger];\n            uint256 credit = currentCredit.add(price.mul(15).div(10));\n            passengerCredits[passenger] = credit;\n        }\n\n        insurances[sku].state = InsuranceState.Credited;\n    }\n\n    /**\n    *  @dev Credits payouts to insurees\n    */\n    function getPassengerCredit(address passenger) requireIsOperational external returns(uint256) {\n        return passengerCredits[passenger];\n    }\n\n    /**\n    *  @dev Transfers eligible payout funds to insuree\n    *\n    */\n    function pay(address passenger) external {\n        uint256 passengerCreditAmount = passengerCredits[passenger];\n        require(passengerCreditAmount > 0, \"Passenger does not have enough credit\");\n        require(this.balance > 0, \"Contract does not have enough credit\");\n\n        passengerCredits[passenger] = 0;\n        passenger.transfer(passengerCreditAmount);\n    }\n\n    /**\n    * @dev Initial funding for the insurance. Unless there are too many delayed flights\n    *      resulting in insurance payouts, the contract should be self-sustaining\n    *\n    */\n    function fund(address airline) public payable {\n        airlines[airline].hasPaidRegistrationFee = true;\n    }\n\n    /**\n    * @dev checks if the airline has paid registration fee\n    *\n    */\n    function hasPaidRegistrationFee(address airline) view external returns(bool) {\n        return airlines[airline].hasPaidRegistrationFee;\n    }\n\n    /**\n    * @dev checks if the airline has paied registration fee\n    *\n    */\n    function updateFlightStatus(address airline, string flight, uint256 timestamp, uint8 statusCode) external {\n        bytes32 flightKey = getFlightKey(airline, flight, timestamp);\n        flights[flightKey].statusCode = statusCode;\n    }\n\n    /**\n    * @dev Gets the status of the flight\n    *\n    */\n    function getFlightStatus(address airline, string flight, uint256 timestamp) view external returns(uint8) {\n        bytes32 flightKey = getFlightKey(airline, flight, timestamp);\n        return flights[flightKey].statusCode;\n    }\n\n    /**\n    * @dev Creates a flight key using the airline, flight number and timestamp\n    *\n    */\n    function getFlightKey(address airline, string memory flight, uint256 timestamp) pure internal returns(bytes32) {\n        return keccak256(abi.encodePacked(airline, flight, timestamp));\n    }\n\n    /**\n    * @dev Fallback function for funding smart contract.\n    *\n    */\n    function() external payable {\n        fund(msg.sender);\n    }\n\n}\n",
  "sourcePath": "/Users/stockbit/Documents/Tutorials/FlightSurety/contracts/FlightSuretyData.sol",
  "compiler": {
    "name": "solc",
    "version": "0.4.26+commit.4563c3fc.Emscripten.clang"
  },
  "schemaVersion": "3.4.1",
  "updatedAt": "2021-08-16T01:47:00.909Z",
  "networkType": "ethereum",
  "devdoc": {
    "methods": {
      "buy(address,address,string)": {
        "details": "Buy insurance for a flight    "
      },
      "creditInsurees(address,string)": {
        "details": "Credits payouts to insurees"
      },
      "fund(address)": {
        "details": "Initial funding for the insurance. Unless there are too many delayed flights     resulting in insurance payouts, the contract should be self-sustaining    "
      },
      "getFlightInsuranceOwners(address,string)": {
        "details": "Get flight insurance passenger addresses. This is used for unit testing.    "
      },
      "getFlightNumbers()": {
        "details": "Returns the flight numbers of the flights registered    "
      },
      "getFlightStatus(address,string,uint256)": {
        "details": "Gets the status of the flight    "
      },
      "getNumberOfRegistrationVotes(address)": {
        "details": "Add vote to register airline    "
      },
      "getPassengerCredit(address)": {
        "details": "Credits payouts to insurees"
      },
      "hasPaidRegistrationFee(address)": {
        "details": "checks if the airline has paid registration fee    "
      },
      "isAirline(address)": {
        "details": "checks if the address is an airline registered    "
      },
      "isOperational()": {
        "details": "Get operating status of contract",
        "return": "A bool that is the current operating status"
      },
      "numberOfAirlines()": {
        "details": "Returns the number of airlines that are registered    "
      },
      "numberOfFlights()": {
        "details": "Returns the number of flights that are registered    "
      },
      "pay(address)": {
        "details": "Transfers eligible payout funds to insuree    "
      },
      "registerAirline(address)": {
        "details": "Add an airline to the registration queue     Can only be called from FlightSuretyApp contract    "
      },
      "registerFlight(address,string,uint256)": {
        "details": "Add a flight to the flights mapping    "
      },
      "setOperatingStatus(bool)": {
        "details": "Sets contract operations on/off    * When operational mode is disabled, all write transactions except for this one will fail"
      },
      "updateFlightStatus(address,string,uint256,uint8)": {
        "details": "checks if the airline has paied registration fee    "
      },
      "voteToRegisterAirline(address)": {
        "details": "Add vote to register airline    "
      }
    }
  },
  "userdoc": {
    "methods": {}
  }
}