{
  "contractName": "FlightSuretyData",
  "abi": [
    {
      "inputs": [
        {
          "name": "firstAirline",
          "type": "address"
        }
      ],
      "payable": false,
      "stateMutability": "nonpayable",
      "type": "constructor"
    },
    {
      "payable": true,
      "stateMutability": "payable",
      "type": "fallback"
    },
    {
      "constant": true,
      "inputs": [],
      "name": "isOperational",
      "outputs": [
        {
          "name": "",
          "type": "bool"
        }
      ],
      "payable": false,
      "stateMutability": "view",
      "type": "function"
    },
    {
      "constant": false,
      "inputs": [
        {
          "name": "mode",
          "type": "bool"
        }
      ],
      "name": "setOperatingStatus",
      "outputs": [],
      "payable": false,
      "stateMutability": "nonpayable",
      "type": "function"
    },
    {
      "constant": false,
      "inputs": [
        {
          "name": "airline",
          "type": "address"
        }
      ],
      "name": "registerAirline",
      "outputs": [],
      "payable": false,
      "stateMutability": "nonpayable",
      "type": "function"
    },
    {
      "constant": false,
      "inputs": [],
      "name": "numberOfAirlines",
      "outputs": [
        {
          "name": "",
          "type": "uint256"
        }
      ],
      "payable": false,
      "stateMutability": "nonpayable",
      "type": "function"
    },
    {
      "constant": true,
      "inputs": [
        {
          "name": "airline",
          "type": "address"
        }
      ],
      "name": "isAirline",
      "outputs": [
        {
          "name": "",
          "type": "bool"
        }
      ],
      "payable": false,
      "stateMutability": "view",
      "type": "function"
    },
    {
      "constant": false,
      "inputs": [
        {
          "name": "airline",
          "type": "address"
        }
      ],
      "name": "voteToRegisterAirline",
      "outputs": [],
      "payable": false,
      "stateMutability": "nonpayable",
      "type": "function"
    },
    {
      "constant": false,
      "inputs": [
        {
          "name": "airline",
          "type": "address"
        }
      ],
      "name": "getNumberOfRegistrationVotes",
      "outputs": [
        {
          "name": "",
          "type": "uint256"
        }
      ],
      "payable": false,
      "stateMutability": "nonpayable",
      "type": "function"
    },
    {
      "constant": false,
      "inputs": [
        {
          "name": "airline",
          "type": "address"
        },
        {
          "name": "flight",
          "type": "string"
        },
        {
          "name": "timestamp",
          "type": "uint256"
        }
      ],
      "name": "registerFlight",
      "outputs": [],
      "payable": false,
      "stateMutability": "nonpayable",
      "type": "function"
    },
    {
      "constant": false,
      "inputs": [
        {
          "name": "passenger",
          "type": "address"
        },
        {
          "name": "airline",
          "type": "address"
        },
        {
          "name": "flight",
          "type": "string"
        }
      ],
      "name": "buy",
      "outputs": [],
      "payable": true,
      "stateMutability": "payable",
      "type": "function"
    },
    {
      "constant": true,
      "inputs": [
        {
          "name": "airline",
          "type": "address"
        },
        {
          "name": "flight",
          "type": "string"
        }
      ],
      "name": "getFlightInsuranceOwners",
      "outputs": [
        {
          "name": "",
          "type": "address[]"
        }
      ],
      "payable": false,
      "stateMutability": "view",
      "type": "function"
    },
    {
      "constant": false,
      "inputs": [
        {
          "name": "airline",
          "type": "address"
        },
        {
          "name": "flight",
          "type": "string"
        }
      ],
      "name": "creditInsurees",
      "outputs": [],
      "payable": false,
      "stateMutability": "nonpayable",
      "type": "function"
    },
    {
      "constant": false,
      "inputs": [
        {
          "name": "passenger",
          "type": "address"
        }
      ],
      "name": "getPassengerCredit",
      "outputs": [
        {
          "name": "",
          "type": "uint256"
        }
      ],
      "payable": false,
      "stateMutability": "nonpayable",
      "type": "function"
    },
    {
      "constant": false,
      "inputs": [
        {
          "name": "passenger",
          "type": "address"
        }
      ],
      "name": "pay",
      "outputs": [],
      "payable": false,
      "stateMutability": "nonpayable",
      "type": "function"
    },
    {
      "constant": false,
      "inputs": [
        {
          "name": "airline",
          "type": "address"
        }
      ],
      "name": "fund",
      "outputs": [],
      "payable": true,
      "stateMutability": "payable",
      "type": "function"
    },
    {
      "constant": true,
      "inputs": [
        {
          "name": "airline",
          "type": "address"
        }
      ],
      "name": "hasPaidRegistrationFee",
      "outputs": [
        {
          "name": "",
          "type": "bool"
        }
      ],
      "payable": false,
      "stateMutability": "view",
      "type": "function"
    },
    {
      "constant": false,
      "inputs": [
        {
          "name": "airline",
          "type": "address"
        },
        {
          "name": "flight",
          "type": "string"
        },
        {
          "name": "timestamp",
          "type": "uint256"
        },
        {
          "name": "statusCode",
          "type": "uint8"
        }
      ],
      "name": "updateFlightStatus",
      "outputs": [],
      "payable": false,
      "stateMutability": "nonpayable",
      "type": "function"
    },
    {
      "constant": true,
      "inputs": [
        {
          "name": "airline",
          "type": "address"
        },
        {
          "name": "flight",
          "type": "string"
        },
        {
          "name": "timestamp",
          "type": "uint256"
        }
      ],
      "name": "getFlightStatus",
      "outputs": [
        {
          "name": "",
          "type": "uint8"
        }
      ],
      "payable": false,
      "stateMutability": "view",
      "type": "function"
    }
  ],
  "bytecode": "0x60806040526001600060146101000a81548160ff021916908315150217905550600180556001600255670de0b6b3a764000060035534801561004057600080fd5b50604051602080611dcc83398101806040528101908080519060200190929190505050336000806101000a81548173ffffffffffffffffffffffffffffffffffffffff021916908373ffffffffffffffffffffffffffffffffffffffff1602179055506001600460008373ffffffffffffffffffffffffffffffffffffffff1673ffffffffffffffffffffffffffffffffffffffff16815260200190815260200160002060000160006101000a81548160ff0219169083151502179055506001600460008373ffffffffffffffffffffffffffffffffffffffff1673ffffffffffffffffffffffffffffffffffffffff16815260200190815260200160002060000160016101000a81548160ff02191690831515021790555050611c63806101696000396000f3006080604052600436106100f1576000357c0100000000000000000000000000000000000000000000000000000000900463ffffffff16806305b64e98146100fc5780630c11dedd146101535780630e248a1114610196578063110466ed146101f15780631b7b7cce14610220578063230244081461027b5780633c85380f146102b15780633cc0be9c146102dc5780634337bdd4146103415780634a4d1014146103b3578063570e30e1146104635780639de5f957146104be578063bce877ab1461053d578063bdfd9877146105ab578063cd905dff146105ee578063dab6ce6a1461061d578063e36ed7b314610674575b6100fa336106b7565b005b34801561010857600080fd5b5061013d600480360381019080803573ffffffffffffffffffffffffffffffffffffffff169060200190929190505050610715565b6040518082815260200191505060405180910390f35b34801561015f57600080fd5b50610194600480360381019080803573ffffffffffffffffffffffffffffffffffffffff169060200190929190505050610807565b005b3480156101a257600080fd5b506101d7600480360381019080803573ffffffffffffffffffffffffffffffffffffffff169060200190929190505050610a2e565b604051808215151515815260200191505060405180910390f35b3480156101fd57600080fd5b5061021e600480360381019080803515159060200190929190505050610a87565b005b34801561022c57600080fd5b50610279600480360381019080803573ffffffffffffffffffffffffffffffffffffffff169060200190929190803590602001908201803590602001919091929391929390505050610b68565b005b6102af600480360381019080803573ffffffffffffffffffffffffffffffffffffffff1690602001909291905050506106b7565b005b3480156102bd57600080fd5b506102c6610e13565b6040518082815260200191505060405180910390f35b3480156102e857600080fd5b5061033f600480360381019080803573ffffffffffffffffffffffffffffffffffffffff16906020019092919080359060200190820180359060200191909192939192939080359060200190929190505050610ec6565b005b34801561034d57600080fd5b506103b1600480360381019080803573ffffffffffffffffffffffffffffffffffffffff16906020019092919080359060200190820180359060200191909192939192939080359060200190929190803560ff169060200190929190505050611160565b005b3480156103bf57600080fd5b5061040c600480360381019080803573ffffffffffffffffffffffffffffffffffffffff1690602001909291908035906020019082018035906020019190919293919293905050506111e0565b6040518080602001828103825283818151815260200191508051906020019060200280838360005b8381101561044f578082015181840152602081019050610434565b505050509050019250505060405180910390f35b34801561046f57600080fd5b506104a4600480360381019080803573ffffffffffffffffffffffffffffffffffffffff1690602001909291905050506112f1565b604051808215151515815260200191505060405180910390f35b3480156104ca57600080fd5b50610521600480360381019080803573ffffffffffffffffffffffffffffffffffffffff1690602001909291908035906020019082018035906020019190919293919293908035906020019092919050505061134a565b604051808260ff1660ff16815260200191505060405180910390f35b6105a9600480360381019080803573ffffffffffffffffffffffffffffffffffffffff169060200190929190803573ffffffffffffffffffffffffffffffffffffffff1690602001909291908035906020019082018035906020019190919293919293905050506113c3565b005b3480156105b757600080fd5b506105ec600480360381019080803573ffffffffffffffffffffffffffffffffffffffff1690602001909291905050506115bf565b005b3480156105fa57600080fd5b506106036117ea565b604051808215151515815260200191505060405180910390f35b34801561062957600080fd5b5061065e600480360381019080803573ffffffffffffffffffffffffffffffffffffffff169060200190929190505050611800565b6040518082815260200191505060405180910390f35b34801561068057600080fd5b506106b5600480360381019080803573ffffffffffffffffffffffffffffffffffffffff169060200190929190505050611849565b005b6001600460008373ffffffffffffffffffffffffffffffffffffffff1673ffffffffffffffffffffffffffffffffffffffff16815260200190815260200160002060000160016101000a81548160ff02191690831515021790555050565b60008060149054906101000a900460ff1615156107c0576040517f08c379a00000000000000000000000000000000000000000000000000000000081526004018080602001828103825260258152602001807f436f6e74726163742069732063757272656e746c79206e6f74206f706572617481526020017f696f6e616c00000000000000000000000000000000000000000000000000000081525060400191505060405180910390fd5b600760008373ffffffffffffffffffffffffffffffffffffffff1673ffffffffffffffffffffffffffffffffffffffff168152602001908152602001600020549050919050565b6000600760008373ffffffffffffffffffffffffffffffffffffffff1673ffffffffffffffffffffffffffffffffffffffff1681526020019081526020016000205490506000811115156108e9576040517f08c379a00000000000000000000000000000000000000000000000000000000081526004018080602001828103825260258152602001807f50617373656e67657220646f6573206e6f74206861766520656e6f756768206381526020017f726564697400000000000000000000000000000000000000000000000000000081525060400191505060405180910390fd5b60003073ffffffffffffffffffffffffffffffffffffffff163111151561099e576040517f08c379a00000000000000000000000000000000000000000000000000000000081526004018080602001828103825260248152602001807f436f6e747261637420646f6573206e6f74206861766520656e6f75676820637281526020017f656469740000000000000000000000000000000000000000000000000000000081525060400191505060405180910390fd5b6000600760008473ffffffffffffffffffffffffffffffffffffffff1673ffffffffffffffffffffffffffffffffffffffff168152602001908152602001600020819055508173ffffffffffffffffffffffffffffffffffffffff166108fc829081150290604051600060405180830381858888f19350505050158015610a29573d6000803e3d6000fd5b505050565b6000600460008373ffffffffffffffffffffffffffffffffffffffff1673ffffffffffffffffffffffffffffffffffffffff16815260200190815260200160002060000160009054906101000a900460ff169050919050565b6000809054906101000a900473ffffffffffffffffffffffffffffffffffffffff1673ffffffffffffffffffffffffffffffffffffffff163373ffffffffffffffffffffffffffffffffffffffff16141515610b4b576040517f08c379a000000000000000000000000000000000000000000000000000000000815260040180806020018281038252601c8152602001807f43616c6c6572206973206e6f7420636f6e7472616374206f776e65720000000081525060200191505060405180910390fd5b80600060146101000a81548160ff02191690831515021790555050565b60008060008060008060008060149054906101000a900460ff161515610c1c576040517f08c379a00000000000000000000000000000000000000000000000000000000081526004018080602001828103825260258152602001807f436f6e74726163742069732063757272656e746c79206e6f74206f706572617481526020017f696f6e616c00000000000000000000000000000000000000000000000000000081525060400191505060405180910390fd5b600460008b73ffffffffffffffffffffffffffffffffffffffff1673ffffffffffffffffffffffffffffffffffffffff168152602001908152602001600020600101898960405180838380828437820191505092505050908152602001604051809103902054965060066000888152602001908152602001600020600401549550600660008881526020019081526020016000206001019450600093505b8480549050841015610dcf578484815481101515610cd457fe5b9060005260206000200160009054906101000a900473ffffffffffffffffffffffffffffffffffffffff169250600760008473ffffffffffffffffffffffffffffffffffffffff1673ffffffffffffffffffffffffffffffffffffffff168152602001908152602001600020549150610d7c610d6d600a610d5f600f8a6118e890919063ffffffff16565b61192090919063ffffffff16565b8361193690919063ffffffff16565b905080600760008573ffffffffffffffffffffffffffffffffffffffff1673ffffffffffffffffffffffffffffffffffffffff168152602001908152602001600020819055508380600101945050610cba565b60016006600089815260200190815260200160002060050160006101000a81548160ff02191690836002811115610e0257fe5b021790555050505050505050505050565b60008060149054906101000a900460ff161515610ebe576040517f08c379a00000000000000000000000000000000000000000000000000000000081526004018080602001828103825260258152602001807f436f6e74726163742069732063757272656e746c79206e6f74206f706572617481526020017f696f6e616c00000000000000000000000000000000000000000000000000000081525060400191505060405180910390fd5b600254905090565b60008060149054906101000a900460ff161515610f71576040517f08c379a00000000000000000000000000000000000000000000000000000000081526004018080602001828103825260258152602001807f436f6e74726163742069732063757272656e746c79206e6f74206f706572617481526020017f696f6e616c00000000000000000000000000000000000000000000000000000081525060400191505060405180910390fd5b610fae8585858080601f01602080910402602001604051908101604052809392919081815260200183838082843782019150505050505084611952565b905060a060405190810160405280600115158152602001600060ff16815260200160015481526020018381526020018673ffffffffffffffffffffffffffffffffffffffff1681525060056000836000191660001916815260200190815260200160002060008201518160000160006101000a81548160ff02191690831515021790555060208201518160000160016101000a81548160ff021916908360ff160217905550604082015181600101556060820151816002015560808201518160030160006101000a81548173ffffffffffffffffffffffffffffffffffffffff021916908373ffffffffffffffffffffffffffffffffffffffff160217905550905050600154600460008773ffffffffffffffffffffffffffffffffffffffff1673ffffffffffffffffffffffffffffffffffffffff1681526020019081526020016000206001018585604051808383808284378201915050925050509081526020016040518091039020819055506111598585858080601f016020809104026020016040519081016040528093929190818152602001838380828437820191505050505050611a77565b5050505050565b600061119f8686868080601f01602080910402602001604051908101604052809392919081815260200183838082843782019150505050505085611952565b90508160056000836000191660001916815260200190815260200160002060000160016101000a81548160ff021916908360ff160217905550505050505050565b60606000600460008673ffffffffffffffffffffffffffffffffffffffff1673ffffffffffffffffffffffffffffffffffffffff1681526020019081526020016000206001018484604051808383808284378201915050925050509081526020016040518091039020549050600660008281526020019081526020016000206001018054806020026020016040519081016040528092919081815260200182805480156112e257602002820191906000526020600020905b8160009054906101000a900473ffffffffffffffffffffffffffffffffffffffff1673ffffffffffffffffffffffffffffffffffffffff1681526020019060010190808311611298575b50505050509150509392505050565b6000600460008373ffffffffffffffffffffffffffffffffffffffff1673ffffffffffffffffffffffffffffffffffffffff16815260200190815260200160002060000160019054906101000a900460ff169050919050565b60008061138a8686868080601f01602080910402602001604051908101604052809392919081815260200183838082843782019150505050505085611952565b905060056000826000191660001916815260200190815260200160002060000160019054906101000a900460ff16915050949350505050565b60008060149054906101000a900460ff16151561146e576040517f08c379a00000000000000000000000000000000000000000000000000000000081526004018080602001828103825260258152602001807f436f6e74726163742069732063757272656e746c79206e6f74206f706572617481526020017f696f6e616c00000000000000000000000000000000000000000000000000000081525060400191505060405180910390fd5b600460008573ffffffffffffffffffffffffffffffffffffffff1673ffffffffffffffffffffffffffffffffffffffff1681526020019081526020016000206001018383604051808383808284378201915050925050509081526020016040518091039020549050600660008281526020019081526020016000206001018590806001815401808255809150509060018203906000526020600020016000909192909190916101000a81548173ffffffffffffffffffffffffffffffffffffffff021916908373ffffffffffffffffffffffffffffffffffffffff160217905550506000809054906101000a900473ffffffffffffffffffffffffffffffffffffffff1673ffffffffffffffffffffffffffffffffffffffff166108fc349081150290604051600060405180830381858888f193505050501580156115b7573d6000803e3d6000fd5b505050505050565b600060149054906101000a900460ff161515611669576040517f08c379a00000000000000000000000000000000000000000000000000000000081526004018080602001828103825260258152602001807f436f6e74726163742069732063757272656e746c79206e6f74206f706572617481526020017f696f6e616c00000000000000000000000000000000000000000000000000000081525060400191505060405180910390fd5b600460008273ffffffffffffffffffffffffffffffffffffffff1673ffffffffffffffffffffffffffffffffffffffff16815260200190815260200160002060000160009054906101000a900460ff1615151561172e576040517f08c379a000000000000000000000000000000000000000000000000000000000815260040180806020018281038252601e8152602001807f4169726c696e6520697320616c726561647920726567697374657265642e000081525060200191505060405180910390fd5b604080519081016040528060011515815260200160001515815250600460008373ffffffffffffffffffffffffffffffffffffffff1673ffffffffffffffffffffffffffffffffffffffff16815260200190815260200160002060008201518160000160006101000a81548160ff02191690831515021790555060208201518160000160016101000a81548160ff0219169083151502179055509050506117e1600160025461193690919063ffffffff16565b60028190555050565b60008060149054906101000a900460ff16905090565b6000600860008373ffffffffffffffffffffffffffffffffffffffff1673ffffffffffffffffffffffffffffffffffffffff168152602001908152602001600020549050919050565b6000600860008373ffffffffffffffffffffffffffffffffffffffff1673ffffffffffffffffffffffffffffffffffffffff1681526020019081526020016000205490506118a160018261193690919063ffffffff16565b600860008473ffffffffffffffffffffffffffffffffffffffff1673ffffffffffffffffffffffffffffffffffffffff168152602001908152602001600020819055505050565b6000808314156118fb576000905061191a565b818302905081838281151561190c57fe5b0414151561191657fe5b8090505b92915050565b6000818381151561192d57fe5b04905092915050565b6000818301905082811015151561194957fe5b80905092915050565b6000838383604051602001808473ffffffffffffffffffffffffffffffffffffffff1673ffffffffffffffffffffffffffffffffffffffff166c0100000000000000000000000002815260140183805190602001908083835b6020831015156119d057805182526020820191506020810190506020830392506119ab565b6001836020036101000a03801982511681845116808217855250505050505090500182815260200193505050506040516020818303038152906040526040518082805190602001908083835b602083101515611a415780518252602082019150602081019050602083039250611a1c565b6001836020036101000a038019825116818451168082178552505050505050905001915050604051809103902090509392505050565b600154600660006001548152602001908152602001600020600001819055508160066000600154815260200190815260200160002060020160006101000a81548173ffffffffffffffffffffffffffffffffffffffff021916908373ffffffffffffffffffffffffffffffffffffffff160217905550806006600060015481526020019081526020016000206003019080519060200190611b19929190611b92565b5060035460066000600154815260200190815260200160002060040181905550600060066000600154815260200190815260200160002060050160006101000a81548160ff02191690836002811115611b6e57fe5b0217905550611b886001805461193690919063ffffffff16565b6001819055505050565b828054600181600116156101000203166002900490600052602060002090601f016020900481019282601f10611bd357805160ff1916838001178555611c01565b82800160010185558215611c01579182015b82811115611c00578251825591602001919060010190611be5565b5b509050611c0e9190611c12565b5090565b611c3491905b80821115611c30576000816000905550600101611c18565b5090565b905600a165627a7a72305820c614ba34a470159c42fe3a88af091a06c9566c85bf269fda58f463ddfd12d1c70029",
  "source": "pragma solidity ^0.4.25;\n\nimport \"../node_modules/openzeppelin-solidity/contracts/math/SafeMath.sol\";\n\ninterface IFlightSuretyData {\n    function registerAirline(address airline) external;\n    function numberOfAirlines() returns(uint);\n    function isOperational() view external returns(bool);\n    function registerFlight(address airline, string flight, uint256 timestamp) external;\n    function fund(address airline) public payable;\n    function buy(address passenger, address airline, string flight) external payable;\n    function pay(address passenger) external;\n    function hasPaidRegistrationFee(address airline) view external returns(bool);\n    function updateFlightStatus(address airline, string flight, uint256 timestamp, uint8 statusCode) external;\n    function voteToRegisterAirline(address airline) external;\n    function getNumberOfRegistrationVotes(address airline) external returns(uint);\n}\n\ncontract FlightSuretyData is IFlightSuretyData {\n    using SafeMath for uint256;\n\n    /********************************************************************************************/\n    /*                                       DATA VARIABLES                                     */\n    /********************************************************************************************/\n\n    struct Airline {\n        bool isRegistered;\n        bool hasPaidRegistrationFee;\n        mapping(string => uint) flightSKUs;\n    }\n\n    struct Flight {\n        bool isRegistered;\n        uint8 statusCode;\n        uint sku;\n        uint256 updatedTimestamp;\n        address airline;\n    }\n\n    enum InsuranceState {\n        Active,\n        Credited,\n        Expired\n    }\n\n    struct FlightInsurance {\n        uint sku;\n        address[] passengers;  // Metamask-Ethereum address of the current owner\n        address airline; // The airline of the insured flight\n        string flight; // The flight number\n        uint price; // Product Price\n        InsuranceState state;  // Product State as represented in the enum above\n    }\n\n    address private contractOwner; // Account used to deploy contract\n    bool private operational = true; // Blocks all state changes throughout the contract if false\n\n    uint flightSKU = 1; // Sku stands for Stock Keeping Unit\n    uint airlineSKU = 1; // Sku stands for Stock Keeping Unit\n    uint private insurancePrice = 1 ether; // The price of the flight insurance\n\n    // Track all registered airlines\n    mapping(address => Airline) private airlines; // Mapping for storing user profiles\n    // Track all registerd flights\n    mapping(bytes32 => Flight) private flights;\n    // Track all the existing insurance\n    mapping(uint => FlightInsurance) private insurances;\n    // Keeps track of how much credit each passenger can withdraw\n    mapping(address => uint256) private passengerCredits;\n    // Keeps track of the airline registered to vote\n    mapping(address => uint) private airlineRegistrationVotes;\n\n    /********************************************************************************************/\n    /*                                       EVENT DEFINITIONS                                  */\n    /********************************************************************************************/\n\n\n    /**\n    * @dev Constructor\n    *      The deploying account becomes contractOwner\n    */\n    constructor(address firstAirline) public {\n        contractOwner = msg.sender;\n\n        // Set first airline\n        airlines[firstAirline].isRegistered = true;\n        airlines[firstAirline].hasPaidRegistrationFee = true;\n    }\n\n    /********************************************************************************************/\n    /*                                       FUNCTION MODIFIERS                                 */\n    /********************************************************************************************/\n\n    // Modifiers help avoid duplication of code. They are typically used to validate something\n    // before a function is allowed to be executed.\n\n    /**\n    * @dev Modifier that requires the \"operational\" boolean variable to be \"true\"\n    *      This is used on all state changing functions to pause the contract in\n    *      the event there is an issue that needs to be fixed\n    */\n    modifier requireIsOperational()\n    {\n        require(operational, \"Contract is currently not operational\");\n        _;  // All modifiers require an \"_\" which indicates where the function body will be added\n    }\n\n    /**\n    * @dev Modifier that requires the \"ContractOwner\" account to be the function caller\n    */\n    modifier requireContractOwner()\n    {\n        require(msg.sender == contractOwner, \"Caller is not contract owner\");\n        _;\n    }\n\n    /**\n    * @dev Modifier that requires the \"ContractOwner\" account to be the function caller\n    */\n    modifier requireAnAirline() {\n        require(airlines[msg.sender].isRegistered == true, \"Airline must be registered\");\n        _;\n    }\n\n    /**\n    * @dev Modifier that requires the \"ContractOwner\" account to be the function caller\n    */\n    modifier requireTenEther()\n    {\n        require(msg.value >= 10, \"Airline must pay at least 10 ether\");\n        _;\n    }\n\n    /********************************************************************************************/\n    /*                                       UTILITY FUNCTIONS                                  */\n    /********************************************************************************************/\n\n    /**\n    * @dev Get operating status of contract\n    *\n    * @return A bool that is the current operating status\n    */\n    function isOperational() view external returns(bool) {\n        return operational;\n    }\n\n    /**\n    * @dev Sets contract operations on/off\n    *\n    * When operational mode is disabled, all write transactions except for this one will fail\n    */\n    function setOperatingStatus(bool mode) external requireContractOwner {\n        operational = mode;\n    }\n\n    /********************************************************************************************/\n    /*                                     SMART CONTRACT FUNCTIONS                             */\n    /********************************************************************************************/\n\n    /**\n    * @dev Add an airline to the registration queue\n    *      Can only be called from FlightSuretyApp contract\n    *\n    */\n    function registerAirline(address airline) external\n        requireIsOperational\n    {\n        require(!airlines[airline].isRegistered, \"Airline is already registered.\");\n\n        airlines[airline] = Airline(true, false);\n        airlineSKU = airlineSKU.add(1);\n    }\n\n    /**\n    * @dev Returns the number of airlines that are registered\n    *\n    */\n    function numberOfAirlines()\n        requireIsOperational\n        returns(uint)\n    {\n        return airlineSKU;\n    }\n\n    /**\n    * @dev checks if the address is an airline registered\n    *\n    */\n    function isAirline(address airline) view external\n        returns(bool)\n    {\n        return airlines[airline].isRegistered;\n    }\n\n    /**\n    * @dev Add vote to register airline\n    *\n    */\n    function voteToRegisterAirline(address airline) external {\n        uint currentNumberOfVotes = airlineRegistrationVotes[airline];\n        airlineRegistrationVotes[airline] = currentNumberOfVotes.add(1);\n    }\n\n    /**\n    * @dev Add vote to register airline\n    *\n    */\n    function getNumberOfRegistrationVotes(address airline) external\n        returns(uint)\n    {\n        return airlineRegistrationVotes[airline];\n    }\n\n    /**\n    * @dev Add a flight to the flights mapping\n    *\n    */\n    function registerFlight(address airline, string flight, uint256 timestamp) external\n        requireIsOperational\n    {\n        bytes32 flightKey = getFlightKey(airline, flight, timestamp);\n\n        flights[flightKey] = Flight(true, 0, flightSKU, timestamp, airline);\n        airlines[airline].flightSKUs[flight] = flightSKU;\n\n        _createFlightInsurance(airline, flight);\n    }\n\n    /**\n    * @dev Add a flight insurance to the insurances mapping\n    *\n    */\n    function _createFlightInsurance(address airline, string flight) internal {\n        insurances[flightSKU].sku = flightSKU;\n        insurances[flightSKU].airline = airline;\n        insurances[flightSKU].flight = flight;\n        insurances[flightSKU].price = insurancePrice;\n        insurances[flightSKU].state = InsuranceState.Active;\n\n        // Increment the SKU\n        flightSKU = flightSKU.add(1);\n    }\n\n    /**\n    * @dev Buy insurance for a flight\n    *\n    */\n    function buy(address passenger, address airline, string flight) external payable\n        requireIsOperational\n    {\n        uint sku = airlines[airline].flightSKUs[flight];\n        insurances[sku].passengers.push(passenger);\n\n        contractOwner.transfer(msg.value);\n    }\n\n    /**\n    * @dev Get flight insurance passenger addresses. This is used for unit testing.\n    *\n    */\n    function getFlightInsuranceOwners(address airline, string flight) view external returns(address[]) {\n        uint sku = airlines[airline].flightSKUs[flight];\n        return insurances[sku].passengers;\n    }\n\n    /**\n    *  @dev Credits payouts to insurees\n    */\n    function creditInsurees(address airline, string flight) requireIsOperational external {\n        uint sku = airlines[airline].flightSKUs[flight];\n        uint price = insurances[sku].price;\n        address[] passengers = insurances[sku].passengers;\n\n        for (uint i=0; i < passengers.length; i++) {\n            address passenger = passengers[i];\n            uint256 currentCredit = passengerCredits[passenger];\n            uint256 credit = currentCredit.add(price.mul(15).div(10));\n            passengerCredits[passenger] = credit;\n        }\n\n        insurances[sku].state = InsuranceState.Credited;\n    }\n\n    /**\n    *  @dev Credits payouts to insurees\n    */\n    function getPassengerCredit(address passenger) requireIsOperational external returns(uint256) {\n        return passengerCredits[passenger];\n    }\n\n    /**\n    *  @dev Transfers eligible payout funds to insuree\n    *\n    */\n    function pay(address passenger) external {\n        uint256 passengerCreditAmount = passengerCredits[passenger];\n        require(passengerCreditAmount > 0, \"Passenger does not have enough credit\");\n        require(this.balance > 0, \"Contract does not have enough credit\");\n\n        passengerCredits[passenger] = 0;\n        passenger.transfer(passengerCreditAmount);\n    }\n\n    /**\n    * @dev Initial funding for the insurance. Unless there are too many delayed flights\n    *      resulting in insurance payouts, the contract should be self-sustaining\n    *\n    */\n    function fund(address airline) public payable {\n        airlines[airline].hasPaidRegistrationFee = true;\n    }\n\n    /**\n    * @dev checks if the airline has paid registration fee\n    *\n    */\n    function hasPaidRegistrationFee(address airline) view external returns(bool) {\n        return airlines[airline].hasPaidRegistrationFee;\n    }\n\n    /**\n    * @dev checks if the airline has paied registration fee\n    *\n    */\n    function updateFlightStatus(address airline, string flight, uint256 timestamp, uint8 statusCode) external {\n        bytes32 flightKey = getFlightKey(airline, flight, timestamp);\n        flights[flightKey].statusCode = statusCode;\n    }\n\n    /**\n    * @dev Gets the status of the flight\n    *\n    */\n    function getFlightStatus(address airline, string flight, uint256 timestamp) view external returns(uint8) {\n        bytes32 flightKey = getFlightKey(airline, flight, timestamp);\n        return flights[flightKey].statusCode;\n    }\n\n    /**\n    * @dev Creates a flight key using the airline, flight number and timestamp\n    *\n    */\n    function getFlightKey(address airline, string memory flight, uint256 timestamp) pure internal returns(bytes32) {\n        return keccak256(abi.encodePacked(airline, flight, timestamp));\n    }\n\n    /**\n    * @dev Fallback function for funding smart contract.\n    *\n    */\n    function() external payable {\n        fund(msg.sender);\n    }\n\n}\n",
  "sourcePath": "/Users/stockbit/Documents/Tutorials/FlightSurety/contracts/FlightSuretyData.sol",
  "compiler": {
    "name": "solc",
    "version": "0.4.26+commit.4563c3fc.Emscripten.clang"
  },
  "schemaVersion": "3.4.1",
  "updatedAt": "2021-08-14T05:23:06.440Z",
  "networkType": "ethereum",
  "devdoc": {
    "methods": {
      "buy(address,address,string)": {
        "details": "Buy insurance for a flight    "
      },
      "creditInsurees(address,string)": {
        "details": "Credits payouts to insurees"
      },
      "fund(address)": {
        "details": "Initial funding for the insurance. Unless there are too many delayed flights     resulting in insurance payouts, the contract should be self-sustaining    "
      },
      "getFlightInsuranceOwners(address,string)": {
        "details": "Get flight insurance passenger addresses. This is used for unit testing.    "
      },
      "getFlightStatus(address,string,uint256)": {
        "details": "Gets the status of the flight    "
      },
      "getNumberOfRegistrationVotes(address)": {
        "details": "Add vote to register airline    "
      },
      "getPassengerCredit(address)": {
        "details": "Credits payouts to insurees"
      },
      "hasPaidRegistrationFee(address)": {
        "details": "checks if the airline has paid registration fee    "
      },
      "isAirline(address)": {
        "details": "checks if the address is an airline registered    "
      },
      "isOperational()": {
        "details": "Get operating status of contract",
        "return": "A bool that is the current operating status"
      },
      "numberOfAirlines()": {
        "details": "Returns the number of airlines that are registered    "
      },
      "pay(address)": {
        "details": "Transfers eligible payout funds to insuree    "
      },
      "registerAirline(address)": {
        "details": "Add an airline to the registration queue     Can only be called from FlightSuretyApp contract    "
      },
      "registerFlight(address,string,uint256)": {
        "details": "Add a flight to the flights mapping    "
      },
      "setOperatingStatus(bool)": {
        "details": "Sets contract operations on/off    * When operational mode is disabled, all write transactions except for this one will fail"
      },
      "updateFlightStatus(address,string,uint256,uint8)": {
        "details": "checks if the airline has paied registration fee    "
      },
      "voteToRegisterAirline(address)": {
        "details": "Add vote to register airline    "
      }
    }
  },
  "userdoc": {
    "methods": {}
  }
}